:100000000C9471000C948E000C948E000C948E0055
:100010000C948E000C948E000C948E000C948E0028
:100020000C948E000C948E000C948E000C948E0018
:100030000C948E000C948E000C948E000C948E0008
:100040000C94E7010C948E000C948E000C948E009E
:100050000C948E000C948E000C948E000C948E00E8
:100060000C948E000C948E0005A84CCDB2D44EB9E1
:100070003836A9020C50B9918688083CA6AAAA2A4B
:10008000BE000000803F00000000240027002A007E
:1000900000000000250028002B00000000080002DE
:1000A0000100000304070000000000000000000041
:1000B00000002300260029000404040404040404AE
:1000C0000202020202020303030303030102040803
:1000D00010204080010204081020010204081020B2
:1000E000E20311241FBECFEFD8E0DEBFCDBF21E079
:1000F000A0E0B1E001C01D92A432B207E1F710E028
:10010000C1E7D0E004C02197FE010E941B04C03764
:10011000D107C9F70E9476020C94E3060C94000004
:1001200090E0FC01E656FF4F2491FC01E453FF4FA1
:100130003491FC01E854FF4FE491EE23C9F02223EF
:1001400039F0233001F1A8F4213019F1223029F1DE
:10015000F0E0EE0FFF1FE057FF4FA591B4918FB76E
:10016000F894EC91611126C030953E233C938FBFEB
:1001700008952730A9F02830C9F0243049F780913C
:1001800080008F7D03C0809180008F7780938000F6
:10019000DFCF84B58F7784BDDBCF84B58F7DFBCF78
:1001A0008091B0008F778093B000D2CF8091B00063
:1001B0008F7DF9CF3E2BDACFCF93DF9390E0FC0118
:1001C000E453FF4F249188549F4FFC01849188236E
:1001D000D1F090E0880F991FFC01EA57FF4FA591DD
:1001E000B491FC01E057FF4FC591D49161110EC04D
:1001F0009FB7F8948C91E22FE0958E238C93288101
:10020000E223E8839FBFDF91CF9108958FB7F894E1
:10021000EC91E22BEC938FBFF6CF1F93CF93DF933C
:10022000182FEB0161E00E94DC00209739F460E0B8
:10023000812FDF91CF911F910C949000CF3FD1057A
:1002400011F461E0F5CFE12FF0E0E656FF4FE491C5
:10025000E33031F140F4E130B1F0E230E1F0C038A8
:10026000D1057CF7E4CFE73029F1E83059F1E430EB
:10027000B1F780918000806280938000D0938B00E2
:10028000C0938A0004C084B5806884BDC7BDDF9177
:10029000CF911F91089584B5806284BDC8BDF7CF0A
:1002A00080918000806880938000D0938900C09303
:1002B0008800EDCF8091B00080688093B000C0933B
:1002C000B300E5CF8091B00080628093B000C0930E
:1002D000B400DDCF3FB7F8948091200190912101C7
:1002E000A0912201B091230126B5A89B05C02F3F04
:1002F00019F00196A11DB11D3FBFBA2FA92F982F4C
:100300008827BC01CD01620F711D811D911D42E046
:10031000660F771F881F991F4A95D1F708952FB749
:10032000F89460911C0170911D0180911E019091C3
:100330001F012FBF08950E948F0128EE33E040E097
:1003400050E00E94F903CA01B90108950F931F9369
:10035000462F90E0FC01E453FF4F6491FC01E85408
:10036000FF4FE4914111462FF0E0EE0FFF1FE255E1
:10037000FF4F8591949100E412E42FE030E00E9459
:100380003102611571058105910529F06F5F7F4F7D
:100390008F4F9F4F9F701F910F910895CF92DF92C3
:1003A000EF92FF9261E082E00E94A6016B017C0166
:1003B00060E082E00E94A6016C0D7D1D8E1D9F1DD8
:1003C0000E943405FF90EF90DF90CF9008951F9228
:1003D0000F920FB60F9211242F933F938F939F93F9
:1003E000AF93BF9380911C0190911D01A0911E01BC
:1003F000B0911F0130911B0123E0230F2D3758F5D9
:100400000196A11DB11D20931B0180931C019093A7
:100410001D01A0931E01B0931F01809120019091B6
:100420002101A0912201B09123010196A11DB11DCE
:100430008093200190932101A0932201B093230186
:10044000BF91AF919F918F913F912F910F900FBED0
:100450000F901F90189526E8230F0296A11DB11D3D
:10046000D2CFCF92DF92EF92FF920F931F93E82F9C
:10047000F92F05C0015011092109310961F190815D
:1004800096239417B9F305C00150110921093109C8
:1004900011F1908196239413F7CFC12CD12CE12C2C
:1004A000F12C0AC08FEFC81AD80AE80AF80A0C150E
:1004B0001D052E053F0579F080818623841791F371
:1004C0006C2D7D2D8E2D9F2D1F910F91FF90EF9004
:1004D000DF90CF90089560E070E080E090E01F91A1
:1004E0000F91FF90EF90DF90CF900895789484B5AE
:1004F000826084BD84B5816084BD85B5826085BD20
:1005000085B5816085BD80916E00816080936E00AD
:10051000109281008091810082608093810080919F
:100520008100816080938100809180008160809350
:1005300080008091B10084608093B1008091B00010
:1005400081608093B00080917A00846080937A000B
:1005500080917A00826080937A0080917A00816035
:1005600080937A0080917A00806880937A0010925C
:10057000C10085B5887F816085BD80917A008E7FBE
:1005800080937A0080917A00816080937A0060E0A5
:1005900082E00E94DC0061E085E00E94DC0061E016
:1005A00086E00E94DC00E0911401F09115010995AC
:1005B00060930C0170930D0180930E0190930F01D5
:1005C0001092100110921101109212011092130159
:1005D00081E0809316010FEF10E0C0E0D0E0BB2473
:1005E000B3940E94CE0120E030E0A9010E948E0465
:1005F000882309F4DAC00E94CE019B01AC010E945D
:10060000220460931701709318018093190190934D
:100610001A0120E030E0A9016091170170911801E2
:100620008091190190911A010E948E04882309F487
:10063000B6C0C0901001D0901101E0901201F0906E
:10064000130180911601882309F4B8C0E0911401C8
:10065000F0911501099540900C0150900D016090AA
:100660000E0170900F01DC01CB0184199509A609D8
:10067000B709C80ED91EEA1EFB1E80E2C816D104B7
:10068000E104F10408F48BC0E0911401F09115012C
:10069000099560930C0170930D0180930E01909366
:1006A0000F0110921001109211011092120110927C
:1006B0001301B0921601C0900801D0900901E0909A
:1006C0000A01F0900B012BED3FE049EC50E4C7012B
:1006D000B6010E948E0487FF3AC0409017015090E7
:1006E00018016090190170901A01C701B6010E94AB
:1006F000530620E03EEF4FEF56E40E94E6052CEB58
:1007000034E743E35FE30E94E60520E03EEF4FEF6E
:1007100056E40E94220460930401709305018093C3
:10072000060190930701A30192016BED7FE089E43C
:1007300093E40E949304A70196010E94220460930F
:100740000001709301018093020190930301609175
:100750000401709105018091060190910701C090FC
:100760000001D0900101E0900201F0900301C092DD
:100770000801D0920901E0920A01F0920B010E9457
:100780000505C72ED82EE92EFF24B60185E00E946C
:100790000D01B8016C197D0986E00E940D012097BA
:1007A00009F41FCF0E9400001CCF10921701109275
:1007B00018011092190110921A012BCF80E090E0DD
:1007C000DC0157CFCF93DF93CCE0D1E08AE691E014
:1007D000998788870E946A01688379838A839B83CB
:1007E0001C821D821E821F8281E08A87DF91CF9149
:1007F0000895A1E21A2EAA1BBB1BFD010DC0AA1F62
:10080000BB1FEE1FFF1FA217B307E407F50720F079
:10081000A21BB30BE40BF50B661F771F881F991FF4
:100820001A9469F760957095809590959B01AC013D
:10083000BD01CF010895EE0FFF1F0590F491E02D4B
:1008400009945058BB27AA270E9439040C94AC0580
:100850000E949E0538F00E94A50520F039F49F3FC4
:1008600019F426F40C949B050EF4E095E7FB0C9428
:100870009505E92F0E94BD0558F3BA176207730763
:100880008407950720F079F4A6F50C94DF050EF4A3
:10089000E0950B2EBA2FA02D0B01B90190010C0190
:1008A000CA01A0011124FF27591B99F0593F50F4A8
:1008B000503E68F11A16F040A22F232F342F442700
:1008C000585FF3CF469537952795A795F0405395F8
:1008D000C9F77EF41F16BA0B620B730B840BBAF0C8
:1008E0009150A1F0FF0FBB1F661F771F881FC2F733
:1008F0000EC0BA0F621F731F841F48F48795779547
:100900006795B795F7959E3F08F0B0CF9395880F00
:1009100008F09927EE0F9795879508950E94710525
:1009200008F481E008950E94A7040C94AC050E948D
:10093000A50558F00E949E0540F029F45F3F29F07C
:100940000C94950551110C94E0050C949B050E94A4
:10095000BD0568F39923B1F3552391F3951B550B0E
:10096000BB27AA2762177307840738F09F5F5F4F82
:10097000220F331F441FAA1FA9F335D00E2E3AF0C1
:10098000E0E832D091505040E695001CCAF72BD0D9
:10099000FE2F29D0660F771F881FBB1F261737072A
:1009A0004807AB07B0E809F0BB0B802DBF01FF275C
:1009B00093585F4F3AF09E3F510578F00C9495059F
:1009C0000C94E0055F3FE4F3983ED4F38695779569
:1009D0006795B795F7959F5FC9F7880F911D969515
:1009E000879597F90895E1E0660F771F881FBB1F71
:1009F000621773078407BA0720F0621B730B840B1E
:100A0000BA0BEE1F88F7E09508950E94C50588F09F
:100A10009F5798F0B92F9927B751B0F0E1F0660FC2
:100A2000771F881F991F1AF0BA95C9F714C0B13003
:100A300091F00E94DF05B1E008950C94DF05672F67
:100A4000782F8827B85F39F0B93FCCF38695779532
:100A50006795B395D9F73EF490958095709561951B
:100A60007F4F8F4F9F4F0895E89409C097FB3EF446
:100A700090958095709561957F4F8F4F9F4F9923EB
:100A8000A9F0F92F96E9BB279395F6958795779569
:100A90006795B795F111F8CFFAF4BB0F11F460FF29
:100AA0001BC06F5F7F4F8F4F9F4F16C0882311F081
:100AB00096E911C0772321F09EE8872F762F05C095
:100AC000662371F096E8862F70E060E02AF09A9530
:100AD000660F771F881FDAF7880F9695879597F925
:100AE0000895990F0008550FAA0BE0E8FEEF1616BF
:100AF0001706E807F907C0F012161306E407F50712
:100B000098F0621B730B840B950B39F40A2661F085
:100B1000232B242B252B21F408950A2609F4A14028
:100B2000A6958FEF811D811D089597F99F6780E835
:100B300070E060E008959FEF80EC089500240A942F
:100B40001616170618060906089500240A941216A8
:100B50001306140605060895092E0394000C11F4DB
:100B6000882352F0BB0F40F4BF2B11F460FF04C088
:100B70006F5F7F4F8F4F9F4F089557FD9058440FE1
:100B8000551F59F05F3F71F04795880F97FB991FEC
:100B900061F09F3F79F087950895121613061406A9
:100BA000551FF2CF4695F1DF08C016161706180636
:100BB000991FF1CF86957105610508940895E89411
:100BC000BB2766277727CB0197F908950E94F9057F
:100BD0000C94AC050E949E0538F00E94A50520F0FB
:100BE000952311F00C9495050C949B0511240C94FD
:100BF000E0050E94BD0570F3959FC1F3950F50E08D
:100C0000551F629FF001729FBB27F00DB11D639FBE
:100C1000AA27F00DB11DAA1F649F6627B00DA11D64
:100C2000661F829F2227B00DA11D621F739FB00D0A
:100C3000A11D621F839FA00D611D221F749F33277A
:100C4000A00D611D231F849F600D211D822F762F13
:100C50006A2F11249F5750409AF0F1F088234AF0F0
:100C6000EE0FFF1FBB1F661F771F881F915050405C
:100C7000A9F79E3F510580F00C9495050C94E00572
:100C80005F3FE4F3983ED4F3869577956795B795E3
:100C9000F795E7959F5FC1F7FE2B880F911D9695FD
:100CA000879597F908959F930E945D060F9007FC22
:100CB000EE5F0C9486060C949B050E94C505D8F344
:100CC000E894E0E0BB279F57F0F02AED3FE049ECC5
:100CD00006C0EE0FBB0F661F771F881F28F0B23AC1
:100CE00062077307840728F0B25A620B730B840BF8
:100CF000E3959A9572F7803830F49A95BB0F661F8A
:100D0000771F881FD2F790480C949C06EF93E0FF62
:100D100007C0A2EA2AED3FE049EC5FEB0E943904EC
:100D20000E94AC050F90039401FC9058E8E6F0E0B7
:100D30000C94A8069F3F31F0915020F48795779549
:100D40006795B795880F911D9695879597F90895A2
:100D50009F938F937F936F93FF93EF939B01AC01CE
:100D60000E94E605EF91FF910E94BC062F913F91F2
:100D70004F915F910C94E605DF93CF931F930F93F0
:100D8000FF92EF92DF927B018C01689406C0DA2E0D
:100D9000EF010E94F905FE01E894A5912591359196
:100DA00045915591A6F3EF010E943904FE01970188
:100DB000A801DA9469F7DF90EF90FF900F911F91EF
:0A0DC000CF91DF910895F894FFCF62
:00000001FF
